{
  "contractName": "Color",
  "abi": [
    {
      "inputs": [],
      "stateMutability": "nonpayable",
      "type": "constructor"
    },
    {
      "anonymous": false,
      "inputs": [
        {
          "indexed": true,
          "internalType": "address",
          "name": "owner",
          "type": "address"
        },
        {
          "indexed": true,
          "internalType": "address",
          "name": "approved",
          "type": "address"
        },
        {
          "indexed": true,
          "internalType": "uint256",
          "name": "tokenId",
          "type": "uint256"
        }
      ],
      "name": "Approval",
      "type": "event"
    },
    {
      "anonymous": false,
      "inputs": [
        {
          "indexed": true,
          "internalType": "address",
          "name": "owner",
          "type": "address"
        },
        {
          "indexed": true,
          "internalType": "address",
          "name": "operator",
          "type": "address"
        },
        {
          "indexed": false,
          "internalType": "bool",
          "name": "approved",
          "type": "bool"
        }
      ],
      "name": "ApprovalForAll",
      "type": "event"
    },
    {
      "anonymous": false,
      "inputs": [
        {
          "indexed": true,
          "internalType": "address",
          "name": "from",
          "type": "address"
        },
        {
          "indexed": true,
          "internalType": "address",
          "name": "to",
          "type": "address"
        },
        {
          "indexed": true,
          "internalType": "uint256",
          "name": "tokenId",
          "type": "uint256"
        }
      ],
      "name": "Transfer",
      "type": "event"
    },
    {
      "inputs": [
        {
          "internalType": "address",
          "name": "to",
          "type": "address"
        },
        {
          "internalType": "uint256",
          "name": "tokenId",
          "type": "uint256"
        }
      ],
      "name": "approve",
      "outputs": [],
      "stateMutability": "nonpayable",
      "type": "function"
    },
    {
      "inputs": [
        {
          "internalType": "address",
          "name": "owner",
          "type": "address"
        }
      ],
      "name": "balanceOf",
      "outputs": [
        {
          "internalType": "uint256",
          "name": "",
          "type": "uint256"
        }
      ],
      "stateMutability": "view",
      "type": "function",
      "constant": true
    },
    {
      "inputs": [
        {
          "internalType": "uint256",
          "name": "",
          "type": "uint256"
        }
      ],
      "name": "colors",
      "outputs": [
        {
          "internalType": "string",
          "name": "",
          "type": "string"
        }
      ],
      "stateMutability": "view",
      "type": "function",
      "constant": true
    },
    {
      "inputs": [
        {
          "internalType": "uint256",
          "name": "tokenId",
          "type": "uint256"
        }
      ],
      "name": "getApproved",
      "outputs": [
        {
          "internalType": "address",
          "name": "",
          "type": "address"
        }
      ],
      "stateMutability": "view",
      "type": "function",
      "constant": true
    },
    {
      "inputs": [
        {
          "internalType": "address",
          "name": "owner",
          "type": "address"
        },
        {
          "internalType": "address",
          "name": "operator",
          "type": "address"
        }
      ],
      "name": "isApprovedForAll",
      "outputs": [
        {
          "internalType": "bool",
          "name": "",
          "type": "bool"
        }
      ],
      "stateMutability": "view",
      "type": "function",
      "constant": true
    },
    {
      "inputs": [],
      "name": "name",
      "outputs": [
        {
          "internalType": "string",
          "name": "",
          "type": "string"
        }
      ],
      "stateMutability": "view",
      "type": "function",
      "constant": true
    },
    {
      "inputs": [
        {
          "internalType": "uint256",
          "name": "tokenId",
          "type": "uint256"
        }
      ],
      "name": "ownerOf",
      "outputs": [
        {
          "internalType": "address",
          "name": "",
          "type": "address"
        }
      ],
      "stateMutability": "view",
      "type": "function",
      "constant": true
    },
    {
      "inputs": [
        {
          "internalType": "address",
          "name": "from",
          "type": "address"
        },
        {
          "internalType": "address",
          "name": "to",
          "type": "address"
        },
        {
          "internalType": "uint256",
          "name": "tokenId",
          "type": "uint256"
        }
      ],
      "name": "safeTransferFrom",
      "outputs": [],
      "stateMutability": "nonpayable",
      "type": "function"
    },
    {
      "inputs": [
        {
          "internalType": "address",
          "name": "from",
          "type": "address"
        },
        {
          "internalType": "address",
          "name": "to",
          "type": "address"
        },
        {
          "internalType": "uint256",
          "name": "tokenId",
          "type": "uint256"
        },
        {
          "internalType": "bytes",
          "name": "_data",
          "type": "bytes"
        }
      ],
      "name": "safeTransferFrom",
      "outputs": [],
      "stateMutability": "nonpayable",
      "type": "function"
    },
    {
      "inputs": [
        {
          "internalType": "address",
          "name": "operator",
          "type": "address"
        },
        {
          "internalType": "bool",
          "name": "approved",
          "type": "bool"
        }
      ],
      "name": "setApprovalForAll",
      "outputs": [],
      "stateMutability": "nonpayable",
      "type": "function"
    },
    {
      "inputs": [
        {
          "internalType": "bytes4",
          "name": "interfaceId",
          "type": "bytes4"
        }
      ],
      "name": "supportsInterface",
      "outputs": [
        {
          "internalType": "bool",
          "name": "",
          "type": "bool"
        }
      ],
      "stateMutability": "view",
      "type": "function",
      "constant": true
    },
    {
      "inputs": [],
      "name": "symbol",
      "outputs": [
        {
          "internalType": "string",
          "name": "",
          "type": "string"
        }
      ],
      "stateMutability": "view",
      "type": "function",
      "constant": true
    },
    {
      "inputs": [
        {
          "internalType": "uint256",
          "name": "tokenId",
          "type": "uint256"
        }
      ],
      "name": "tokenURI",
      "outputs": [
        {
          "internalType": "string",
          "name": "",
          "type": "string"
        }
      ],
      "stateMutability": "view",
      "type": "function",
      "constant": true
    },
    {
      "inputs": [
        {
          "internalType": "address",
          "name": "from",
          "type": "address"
        },
        {
          "internalType": "address",
          "name": "to",
          "type": "address"
        },
        {
          "internalType": "uint256",
          "name": "tokenId",
          "type": "uint256"
        }
      ],
      "name": "transferFrom",
      "outputs": [],
      "stateMutability": "nonpayable",
      "type": "function"
    },
    {
      "inputs": [
        {
          "internalType": "string",
          "name": "_color",
          "type": "string"
        }
      ],
      "name": "mint",
      "outputs": [],
      "stateMutability": "nonpayable",
      "type": "function"
    }
  ],
  "bytecode": "0x60806040523480156200001157600080fd5b506040518060400160405280600581526020017f436f6c6f720000000000000000000000000000000000000000000000000000008152506040518060400160405280600581526020017f434f4c4f52000000000000000000000000000000000000000000000000000000815250816000908051906020019062000096929190620000b8565b508060019080519060200190620000af929190620000b8565b505050620001cc565b828054620000c69062000197565b90600052602060002090601f016020900481019282620000ea576000855562000136565b82601f106200010557805160ff191683800117855562000136565b8280016001018555821562000136579182015b828111156200013557825182559160200191906001019062000118565b5b50905062000145919062000149565b5090565b5b80821115620001645760008160009055506001016200014a565b5090565b7f4e487b7100000000000000000000000000000000000000000000000000000000600052602260045260246000fd5b60006002820490506001821680620001b057607f821691505b602082108103620001c657620001c562000168565b5b50919050565b612a1680620001dc6000396000f3fe608060405234801561001057600080fd5b50600436106100f55760003560e01c806370a0823111610097578063bd11f69d11610066578063bd11f69d14610282578063c87b56dd146102b2578063d85d3d27146102e2578063e985e9c5146102fe576100f5565b806370a08231146101fc57806395d89b411461022c578063a22cb4651461024a578063b88d4fde14610266576100f5565b8063095ea7b3116100d3578063095ea7b31461017857806323b872dd1461019457806342842e0e146101b05780636352211e146101cc576100f5565b806301ffc9a7146100fa57806306fdde031461012a578063081812fc14610148575b600080fd5b610114600480360381019061010f919061189a565b61032e565b60405161012191906118e2565b60405180910390f35b610132610410565b60405161013f9190611996565b60405180910390f35b610162600480360381019061015d91906119ee565b6104a2565b60405161016f9190611a5c565b60405180910390f35b610192600480360381019061018d9190611aa3565b610527565b005b6101ae60048036038101906101a99190611ae3565b61063e565b005b6101ca60048036038101906101c59190611ae3565b61069e565b005b6101e660048036038101906101e191906119ee565b6106be565b6040516101f39190611a5c565b60405180910390f35b61021660048036038101906102119190611b36565b61076f565b6040516102239190611b72565b60405180910390f35b610234610826565b6040516102419190611996565b60405180910390f35b610264600480360381019061025f9190611bb9565b6108b8565b005b610280600480360381019061027b9190611d2e565b6108ce565b005b61029c600480360381019061029791906119ee565b610930565b6040516102a99190611996565b60405180910390f35b6102cc60048036038101906102c791906119ee565b6109dc565b6040516102d99190611996565b60405180910390f35b6102fc60048036038101906102f79190611e52565b610a83565b005b61031860048036038101906103139190611e9b565b610b50565b60405161032591906118e2565b60405180910390f35b60007f80ac58cd000000000000000000000000000000000000000000000000000000007bffffffffffffffffffffffffffffffffffffffffffffffffffffffff1916827bffffffffffffffffffffffffffffffffffffffffffffffffffffffff191614806103f957507f5b5e139f000000000000000000000000000000000000000000000000000000007bffffffffffffffffffffffffffffffffffffffffffffffffffffffff1916827bffffffffffffffffffffffffffffffffffffffffffffffffffffffff1916145b80610409575061040882610be4565b5b9050919050565b60606000805461041f90611f0a565b80601f016020809104026020016040519081016040528092919081815260200182805461044b90611f0a565b80156104985780601f1061046d57610100808354040283529160200191610498565b820191906000526020600020905b81548152906001019060200180831161047b57829003601f168201915b5050505050905090565b60006104ad82610c4e565b6104ec576040517f08c379a00000000000000000000000000000000000000000000000000000000081526004016104e390611fad565b60405180910390fd5b6004600083815260200190815260200160002060009054906101000a900473ffffffffffffffffffffffffffffffffffffffff169050919050565b6000610532826106be565b90508073ffffffffffffffffffffffffffffffffffffffff168373ffffffffffffffffffffffffffffffffffffffff16036105a2576040517f08c379a00000000000000000000000000000000000000000000000000000000081526004016105999061203f565b60405180910390fd5b8073ffffffffffffffffffffffffffffffffffffffff166105c1610cba565b73ffffffffffffffffffffffffffffffffffffffff1614806105f057506105ef816105ea610cba565b610b50565b5b61062f576040517f08c379a0000000000000000000000000000000000000000000000000000000008152600401610626906120d1565b60405180910390fd5b6106398383610cc2565b505050565b61064f610649610cba565b82610d7b565b61068e576040517f08c379a000000000000000000000000000000000000000000000000000000000815260040161068590612163565b60405180910390fd5b610699838383610e59565b505050565b6106b9838383604051806020016040528060008152506108ce565b505050565b6000806002600084815260200190815260200160002060009054906101000a900473ffffffffffffffffffffffffffffffffffffffff169050600073ffffffffffffffffffffffffffffffffffffffff168173ffffffffffffffffffffffffffffffffffffffff1603610766576040517f08c379a000000000000000000000000000000000000000000000000000000000815260040161075d906121f5565b60405180910390fd5b80915050919050565b60008073ffffffffffffffffffffffffffffffffffffffff168273ffffffffffffffffffffffffffffffffffffffff16036107df576040517f08c379a00000000000000000000000000000000000000000000000000000000081526004016107d690612287565b60405180910390fd5b600360008373ffffffffffffffffffffffffffffffffffffffff1673ffffffffffffffffffffffffffffffffffffffff168152602001908152602001600020549050919050565b60606001805461083590611f0a565b80601f016020809104026020016040519081016040528092919081815260200182805461086190611f0a565b80156108ae5780601f10610883576101008083540402835291602001916108ae565b820191906000526020600020905b81548152906001019060200180831161089157829003601f168201915b5050505050905090565b6108ca6108c3610cba565b83836110bf565b5050565b6108df6108d9610cba565b83610d7b565b61091e576040517f08c379a000000000000000000000000000000000000000000000000000000000815260040161091590612163565b60405180910390fd5b61092a8484848461122b565b50505050565b6006818154811061094057600080fd5b90600052602060002001600091509050805461095b90611f0a565b80601f016020809104026020016040519081016040528092919081815260200182805461098790611f0a565b80156109d45780601f106109a9576101008083540402835291602001916109d4565b820191906000526020600020905b8154815290600101906020018083116109b757829003601f168201915b505050505081565b60606109e782610c4e565b610a26576040517f08c379a0000000000000000000000000000000000000000000000000000000008152600401610a1d90612319565b60405180910390fd5b6000610a30611287565b90506000815111610a505760405180602001604052806000815250610a7b565b80610a5a8461129e565b604051602001610a6b929190612375565b6040516020818303038152906040525b915050919050565b600781604051610a939190612399565b908152602001604051809103902060009054906101000a900460ff1615610ab957600080fd5b600681908060018154018082558091505060019003906000526020600020016000909190919091509080519060200190610af492919061178b565b5060006001600680549050610b0991906123df565b9050610b1533826113fe565b6001600783604051610b279190612399565b908152602001604051809103902060006101000a81548160ff0219169083151502179055505050565b6000600560008473ffffffffffffffffffffffffffffffffffffffff1673ffffffffffffffffffffffffffffffffffffffff16815260200190815260200160002060008373ffffffffffffffffffffffffffffffffffffffff1673ffffffffffffffffffffffffffffffffffffffff16815260200190815260200160002060009054906101000a900460ff16905092915050565b60007f01ffc9a7000000000000000000000000000000000000000000000000000000007bffffffffffffffffffffffffffffffffffffffffffffffffffffffff1916827bffffffffffffffffffffffffffffffffffffffffffffffffffffffff1916149050919050565b60008073ffffffffffffffffffffffffffffffffffffffff166002600084815260200190815260200160002060009054906101000a900473ffffffffffffffffffffffffffffffffffffffff1673ffffffffffffffffffffffffffffffffffffffff1614159050919050565b600033905090565b816004600083815260200190815260200160002060006101000a81548173ffffffffffffffffffffffffffffffffffffffff021916908373ffffffffffffffffffffffffffffffffffffffff160217905550808273ffffffffffffffffffffffffffffffffffffffff16610d35836106be565b73ffffffffffffffffffffffffffffffffffffffff167f8c5be1e5ebec7d5bd14f71427d1e84f3dd0314c0f7b2291e5b200ac8c7c3b92560405160405180910390a45050565b6000610d8682610c4e565b610dc5576040517f08c379a0000000000000000000000000000000000000000000000000000000008152600401610dbc90612485565b60405180910390fd5b6000610dd0836106be565b90508073ffffffffffffffffffffffffffffffffffffffff168473ffffffffffffffffffffffffffffffffffffffff161480610e125750610e118185610b50565b5b80610e5057508373ffffffffffffffffffffffffffffffffffffffff16610e38846104a2565b73ffffffffffffffffffffffffffffffffffffffff16145b91505092915050565b8273ffffffffffffffffffffffffffffffffffffffff16610e79826106be565b73ffffffffffffffffffffffffffffffffffffffff1614610ecf576040517f08c379a0000000000000000000000000000000000000000000000000000000008152600401610ec690612517565b60405180910390fd5b600073ffffffffffffffffffffffffffffffffffffffff168273ffffffffffffffffffffffffffffffffffffffff1603610f3e576040517f08c379a0000000000000000000000000000000000000000000000000000000008152600401610f35906125a9565b60405180910390fd5b610f498383836115d7565b610f54600082610cc2565b6001600360008573ffffffffffffffffffffffffffffffffffffffff1673ffffffffffffffffffffffffffffffffffffffff1681526020019081526020016000206000828254610fa491906123df565b925050819055506001600360008473ffffffffffffffffffffffffffffffffffffffff1673ffffffffffffffffffffffffffffffffffffffff1681526020019081526020016000206000828254610ffb91906125c9565b92505081905550816002600083815260200190815260200160002060006101000a81548173ffffffffffffffffffffffffffffffffffffffff021916908373ffffffffffffffffffffffffffffffffffffffff160217905550808273ffffffffffffffffffffffffffffffffffffffff168473ffffffffffffffffffffffffffffffffffffffff167fddf252ad1be2c89b69c2b068fc378daa952ba7f163c4a11628f55a4df523b3ef60405160405180910390a46110ba8383836115dc565b505050565b8173ffffffffffffffffffffffffffffffffffffffff168373ffffffffffffffffffffffffffffffffffffffff160361112d576040517f08c379a00000000000000000000000000000000000000000000000000000000081526004016111249061266b565b60405180910390fd5b80600560008573ffffffffffffffffffffffffffffffffffffffff1673ffffffffffffffffffffffffffffffffffffffff16815260200190815260200160002060008473ffffffffffffffffffffffffffffffffffffffff1673ffffffffffffffffffffffffffffffffffffffff16815260200190815260200160002060006101000a81548160ff0219169083151502179055508173ffffffffffffffffffffffffffffffffffffffff168373ffffffffffffffffffffffffffffffffffffffff167f17307eab39ab6107e8899845ad3d59bd9653f200f220920489ca2b5937696c318360405161121e91906118e2565b60405180910390a3505050565b611236848484610e59565b611242848484846115e1565b611281576040517f08c379a0000000000000000000000000000000000000000000000000000000008152600401611278906126fd565b60405180910390fd5b50505050565b606060405180602001604052806000815250905090565b6060600082036112e5576040518060400160405280600181526020017f300000000000000000000000000000000000000000000000000000000000000081525090506113f9565b600082905060005b600082146113175780806113009061271d565b915050600a826113109190612794565b91506112ed565b60008167ffffffffffffffff81111561133357611332611c03565b5b6040519080825280601f01601f1916602001820160405280156113655781602001600182028036833780820191505090505b5090505b600085146113f25760018261137e91906123df565b9150600a8561138d91906127c5565b603061139991906125c9565b60f81b8183815181106113af576113ae6127f6565b5b60200101907effffffffffffffffffffffffffffffffffffffffffffffffffffffffffffff1916908160001a905350600a856113eb9190612794565b9450611369565b8093505050505b919050565b600073ffffffffffffffffffffffffffffffffffffffff168273ffffffffffffffffffffffffffffffffffffffff160361146d576040517f08c379a000000000000000000000000000000000000000000000000000000000815260040161146490612871565b60405180910390fd5b61147681610c4e565b156114b6576040517f08c379a00000000000000000000000000000000000000000000000000000000081526004016114ad906128dd565b60405180910390fd5b6114c2600083836115d7565b6001600360008473ffffffffffffffffffffffffffffffffffffffff1673ffffffffffffffffffffffffffffffffffffffff168152602001908152602001600020600082825461151291906125c9565b92505081905550816002600083815260200190815260200160002060006101000a81548173ffffffffffffffffffffffffffffffffffffffff021916908373ffffffffffffffffffffffffffffffffffffffff160217905550808273ffffffffffffffffffffffffffffffffffffffff16600073ffffffffffffffffffffffffffffffffffffffff167fddf252ad1be2c89b69c2b068fc378daa952ba7f163c4a11628f55a4df523b3ef60405160405180910390a46115d3600083836115dc565b5050565b505050565b505050565b60006116028473ffffffffffffffffffffffffffffffffffffffff16611768565b1561175b578373ffffffffffffffffffffffffffffffffffffffff1663150b7a0261162b610cba565b8786866040518563ffffffff1660e01b815260040161164d9493929190612952565b6020604051808303816000875af192505050801561168957506040513d601f19601f8201168201806040525081019061168691906129b3565b60015b61170b573d80600081146116b9576040519150601f19603f3d011682016040523d82523d6000602084013e6116be565b606091505b506000815103611703576040517f08c379a00000000000000000000000000000000000000000000000000000000081526004016116fa906126fd565b60405180910390fd5b805181602001fd5b63150b7a0260e01b7bffffffffffffffffffffffffffffffffffffffffffffffffffffffff1916817bffffffffffffffffffffffffffffffffffffffffffffffffffffffff191614915050611760565b600190505b949350505050565b6000808273ffffffffffffffffffffffffffffffffffffffff163b119050919050565b82805461179790611f0a565b90600052602060002090601f0160209004810192826117b95760008555611800565b82601f106117d257805160ff1916838001178555611800565b82800160010185558215611800579182015b828111156117ff5782518255916020019190600101906117e4565b5b50905061180d9190611811565b5090565b5b8082111561182a576000816000905550600101611812565b5090565b6000604051905090565b600080fd5b600080fd5b60007fffffffff0000000000000000000000000000000000000000000000000000000082169050919050565b61187781611842565b811461188257600080fd5b50565b6000813590506118948161186e565b92915050565b6000602082840312156118b0576118af611838565b5b60006118be84828501611885565b91505092915050565b60008115159050919050565b6118dc816118c7565b82525050565b60006020820190506118f760008301846118d3565b92915050565b600081519050919050565b600082825260208201905092915050565b60005b8381101561193757808201518184015260208101905061191c565b83811115611946576000848401525b50505050565b6000601f19601f8301169050919050565b6000611968826118fd565b6119728185611908565b9350611982818560208601611919565b61198b8161194c565b840191505092915050565b600060208201905081810360008301526119b0818461195d565b905092915050565b6000819050919050565b6119cb816119b8565b81146119d657600080fd5b50565b6000813590506119e8816119c2565b92915050565b600060208284031215611a0457611a03611838565b5b6000611a12848285016119d9565b91505092915050565b600073ffffffffffffffffffffffffffffffffffffffff82169050919050565b6000611a4682611a1b565b9050919050565b611a5681611a3b565b82525050565b6000602082019050611a716000830184611a4d565b92915050565b611a8081611a3b565b8114611a8b57600080fd5b50565b600081359050611a9d81611a77565b92915050565b60008060408385031215611aba57611ab9611838565b5b6000611ac885828601611a8e565b9250506020611ad9858286016119d9565b9150509250929050565b600080600060608486031215611afc57611afb611838565b5b6000611b0a86828701611a8e565b9350506020611b1b86828701611a8e565b9250506040611b2c868287016119d9565b9150509250925092565b600060208284031215611b4c57611b4b611838565b5b6000611b5a84828501611a8e565b91505092915050565b611b6c816119b8565b82525050565b6000602082019050611b876000830184611b63565b92915050565b611b96816118c7565b8114611ba157600080fd5b50565b600081359050611bb381611b8d565b92915050565b60008060408385031215611bd057611bcf611838565b5b6000611bde85828601611a8e565b9250506020611bef85828601611ba4565b9150509250929050565b600080fd5b600080fd5b7f4e487b7100000000000000000000000000000000000000000000000000000000600052604160045260246000fd5b611c3b8261194c565b810181811067ffffffffffffffff82111715611c5a57611c59611c03565b5b80604052505050565b6000611c6d61182e565b9050611c798282611c32565b919050565b600067ffffffffffffffff821115611c9957611c98611c03565b5b611ca28261194c565b9050602081019050919050565b82818337600083830152505050565b6000611cd1611ccc84611c7e565b611c63565b905082815260208101848484011115611ced57611cec611bfe565b5b611cf8848285611caf565b509392505050565b600082601f830112611d1557611d14611bf9565b5b8135611d25848260208601611cbe565b91505092915050565b60008060008060808587031215611d4857611d47611838565b5b6000611d5687828801611a8e565b9450506020611d6787828801611a8e565b9350506040611d78878288016119d9565b925050606085013567ffffffffffffffff811115611d9957611d9861183d565b5b611da587828801611d00565b91505092959194509250565b600067ffffffffffffffff821115611dcc57611dcb611c03565b5b611dd58261194c565b9050602081019050919050565b6000611df5611df084611db1565b611c63565b905082815260208101848484011115611e1157611e10611bfe565b5b611e1c848285611caf565b509392505050565b600082601f830112611e3957611e38611bf9565b5b8135611e49848260208601611de2565b91505092915050565b600060208284031215611e6857611e67611838565b5b600082013567ffffffffffffffff811115611e8657611e8561183d565b5b611e9284828501611e24565b91505092915050565b60008060408385031215611eb257611eb1611838565b5b6000611ec085828601611a8e565b9250506020611ed185828601611a8e565b9150509250929050565b7f4e487b7100000000000000000000000000000000000000000000000000000000600052602260045260246000fd5b60006002820490506001821680611f2257607f821691505b602082108103611f3557611f34611edb565b5b50919050565b7f4552433732313a20617070726f76656420717565727920666f72206e6f6e657860008201527f697374656e7420746f6b656e0000000000000000000000000000000000000000602082015250565b6000611f97602c83611908565b9150611fa282611f3b565b604082019050919050565b60006020820190508181036000830152611fc681611f8a565b9050919050565b7f4552433732313a20617070726f76616c20746f2063757272656e74206f776e6560008201527f7200000000000000000000000000000000000000000000000000000000000000602082015250565b6000612029602183611908565b915061203482611fcd565b604082019050919050565b600060208201905081810360008301526120588161201c565b9050919050565b7f4552433732313a20617070726f76652063616c6c6572206973206e6f74206f7760008201527f6e6572206e6f7220617070726f76656420666f7220616c6c0000000000000000602082015250565b60006120bb603883611908565b91506120c68261205f565b604082019050919050565b600060208201905081810360008301526120ea816120ae565b9050919050565b7f4552433732313a207472616e736665722063616c6c6572206973206e6f74206f60008201527f776e6572206e6f7220617070726f766564000000000000000000000000000000602082015250565b600061214d603183611908565b9150612158826120f1565b604082019050919050565b6000602082019050818103600083015261217c81612140565b9050919050565b7f4552433732313a206f776e657220717565727920666f72206e6f6e657869737460008201527f656e7420746f6b656e0000000000000000000000000000000000000000000000602082015250565b60006121df602983611908565b91506121ea82612183565b604082019050919050565b6000602082019050818103600083015261220e816121d2565b9050919050565b7f4552433732313a2062616c616e636520717565727920666f7220746865207a6560008201527f726f206164647265737300000000000000000000000000000000000000000000602082015250565b6000612271602a83611908565b915061227c82612215565b604082019050919050565b600060208201905081810360008301526122a081612264565b9050919050565b7f4552433732314d657461646174613a2055524920717565727920666f72206e6f60008201527f6e6578697374656e7420746f6b656e0000000000000000000000000000000000602082015250565b6000612303602f83611908565b915061230e826122a7565b604082019050919050565b60006020820190508181036000830152612332816122f6565b9050919050565b600081905092915050565b600061234f826118fd565b6123598185612339565b9350612369818560208601611919565b80840191505092915050565b60006123818285612344565b915061238d8284612344565b91508190509392505050565b60006123a58284612344565b915081905092915050565b7f4e487b7100000000000000000000000000000000000000000000000000000000600052601160045260246000fd5b60006123ea826119b8565b91506123f5836119b8565b925082821015612408576124076123b0565b5b828203905092915050565b7f4552433732313a206f70657261746f7220717565727920666f72206e6f6e657860008201527f697374656e7420746f6b656e0000000000000000000000000000000000000000602082015250565b600061246f602c83611908565b915061247a82612413565b604082019050919050565b6000602082019050818103600083015261249e81612462565b9050919050565b7f4552433732313a207472616e736665722066726f6d20696e636f72726563742060008201527f6f776e6572000000000000000000000000000000000000000000000000000000602082015250565b6000612501602583611908565b915061250c826124a5565b604082019050919050565b60006020820190508181036000830152612530816124f4565b9050919050565b7f4552433732313a207472616e7366657220746f20746865207a65726f2061646460008201527f7265737300000000000000000000000000000000000000000000000000000000602082015250565b6000612593602483611908565b915061259e82612537565b604082019050919050565b600060208201905081810360008301526125c281612586565b9050919050565b60006125d4826119b8565b91506125df836119b8565b9250827fffffffffffffffffffffffffffffffffffffffffffffffffffffffffffffffff03821115612614576126136123b0565b5b828201905092915050565b7f4552433732313a20617070726f766520746f2063616c6c657200000000000000600082015250565b6000612655601983611908565b91506126608261261f565b602082019050919050565b6000602082019050818103600083015261268481612648565b9050919050565b7f4552433732313a207472616e7366657220746f206e6f6e20455243373231526560008201527f63656976657220696d706c656d656e7465720000000000000000000000000000602082015250565b60006126e7603283611908565b91506126f28261268b565b604082019050919050565b60006020820190508181036000830152612716816126da565b9050919050565b6000612728826119b8565b91507fffffffffffffffffffffffffffffffffffffffffffffffffffffffffffffffff820361275a576127596123b0565b5b600182019050919050565b7f4e487b7100000000000000000000000000000000000000000000000000000000600052601260045260246000fd5b600061279f826119b8565b91506127aa836119b8565b9250826127ba576127b9612765565b5b828204905092915050565b60006127d0826119b8565b91506127db836119b8565b9250826127eb576127ea612765565b5b828206905092915050565b7f4e487b7100000000000000000000000000000000000000000000000000000000600052603260045260246000fd5b7f4552433732313a206d696e7420746f20746865207a65726f2061646472657373600082015250565b600061285b602083611908565b915061286682612825565b602082019050919050565b6000602082019050818103600083015261288a8161284e565b9050919050565b7f4552433732313a20746f6b656e20616c7265616479206d696e74656400000000600082015250565b60006128c7601c83611908565b91506128d282612891565b602082019050919050565b600060208201905081810360008301526128f6816128ba565b9050919050565b600081519050919050565b600082825260208201905092915050565b6000612924826128fd565b61292e8185612908565b935061293e818560208601611919565b6129478161194c565b840191505092915050565b60006080820190506129676000830187611a4d565b6129746020830186611a4d565b6129816040830185611b63565b81810360608301526129938184612919565b905095945050505050565b6000815190506129ad8161186e565b92915050565b6000602082840312156129c9576129c8611838565b5b60006129d78482850161299e565b9150509291505056fea2646970667358221220a8f1a4301cc15fcc826f6d44d2e91486e3839820f97bae8aeae50e7026c50a8c64736f6c634300080e0033",
  "immutableReferences": {},
  "source": "// SPDX-License-Identifier: MIT\r\npragma solidity ^0.8.0;\r\n\r\nimport \"./ERC721.sol\";\r\n\r\ncontract Color is ERC721 {\r\n    string[] public colors;\r\n    mapping(string => bool)  _colorExists;\r\n\r\n    constructor() ERC721(\"Color\", \"COLOR\") public {\r\n\r\n    }\r\n\r\n    function mint(string memory _color) public {\r\n        // Require unique color     \r\n        require(!_colorExists[_color]);   \r\n        colors.push(_color);\r\n\r\n        uint _id = colors.length - 1;\r\n\r\n        _mint(msg.sender, _id);\r\n        _colorExists[_color] = true;\r\n    }\r\n}",
  "sourcePath": "E:\\Practics\\blockchain\\nft_collection\\src\\contracts\\Color.sol",
  "compiler": {
    "name": "solc",
    "version": "0.8.14+commit.80d49f37.Emscripten.clang"
  },
  "schemaVersion": "3.4.7",
  "updatedAt": "2022-05-19T20:46:41.166Z",
  "networkType": "ethereum",
  "devdoc": {
    "kind": "dev",
    "methods": {
      "approve(address,uint256)": {
        "details": "See {IERC721-approve}."
      },
      "balanceOf(address)": {
        "details": "See {IERC721-balanceOf}."
      },
      "getApproved(uint256)": {
        "details": "See {IERC721-getApproved}."
      },
      "isApprovedForAll(address,address)": {
        "details": "See {IERC721-isApprovedForAll}."
      },
      "name()": {
        "details": "See {IERC721Metadata-name}."
      },
      "ownerOf(uint256)": {
        "details": "See {IERC721-ownerOf}."
      },
      "safeTransferFrom(address,address,uint256)": {
        "details": "See {IERC721-safeTransferFrom}."
      },
      "safeTransferFrom(address,address,uint256,bytes)": {
        "details": "See {IERC721-safeTransferFrom}."
      },
      "setApprovalForAll(address,bool)": {
        "details": "See {IERC721-setApprovalForAll}."
      },
      "supportsInterface(bytes4)": {
        "details": "See {IERC165-supportsInterface}."
      },
      "symbol()": {
        "details": "See {IERC721Metadata-symbol}."
      },
      "tokenURI(uint256)": {
        "details": "See {IERC721Metadata-tokenURI}."
      },
      "transferFrom(address,address,uint256)": {
        "details": "See {IERC721-transferFrom}."
      }
    },
    "version": 1
  },
  "userdoc": {
    "kind": "user",
    "methods": {},
    "version": 1
  }
}